{
  "_format": "hh-sol-artifact-1",
  "contractName": "PokerGame",
  "sourceName": "contracts/PokerGame.sol",
  "abi": [
    {
      "inputs": [
        {
          "internalType": "string",
          "name": "_name",
          "type": "string"
        }
      ],
      "name": "buyIn",
      "outputs": [],
      "stateMutability": "payable",
      "type": "function"
    },
    {
      "inputs": [
        {
          "internalType": "int256",
          "name": "winnings",
          "type": "int256"
        }
      ],
      "name": "exitGame",
      "outputs": [],
      "stateMutability": "nonpayable",
      "type": "function"
    },
    {
      "inputs": [
        {
          "internalType": "uint256",
          "name": "",
          "type": "uint256"
        }
      ],
      "name": "playerList",
      "outputs": [
        {
          "internalType": "address",
          "name": "",
          "type": "address"
        }
      ],
      "stateMutability": "view",
      "type": "function"
    },
    {
      "inputs": [
        {
          "internalType": "address",
          "name": "",
          "type": "address"
        }
      ],
      "name": "players",
      "outputs": [
        {
          "internalType": "bool",
          "name": "joined",
          "type": "bool"
        },
        {
          "internalType": "uint256",
          "name": "balance",
          "type": "uint256"
        },
        {
          "internalType": "string",
          "name": "name",
          "type": "string"
        }
      ],
      "stateMutability": "view",
      "type": "function"
    }
  ],
  "bytecode": "0x608060405234801561001057600080fd5b5061100b806100206000396000f3fe60806040526004361061003f5760003560e01c806324836d96146100445780634eacc4ba1461006d578063ae6d907314610089578063e2eb41ff146100c6575b600080fd5b34801561005057600080fd5b5061006b60048036038101906100669190610a05565b610105565b005b61008760048036038101906100829190610a2e565b6103c4565b005b34801561009557600080fd5b506100b060048036038101906100ab9190610a6f565b610513565b6040516100bd9190610c30565b60405180910390f35b3480156100d257600080fd5b506100ed60048036038101906100e891906109dc565b610552565b6040516100fc93929190610c4b565b60405180910390f35b60008113156101a357600081905080471015610156576040517f08c379a000000000000000000000000000000000000000000000000000000000815260040161014d90610c89565b60405180910390fd5b3373ffffffffffffffffffffffffffffffffffffffff166108fc829081150290604051600060405180830381858888f1935050505015801561019c573d6000803e3d6000fd5b50506103b8565b6000811215610324576000816101b890610ea9565b9050806000803373ffffffffffffffffffffffffffffffffffffffff1673ffffffffffffffffffffffffffffffffffffffff16815260200190815260200160002060010154101561023e576040517f08c379a000000000000000000000000000000000000000000000000000000000815260040161023590610ca9565b60405180910390fd5b806000803373ffffffffffffffffffffffffffffffffffffffff1673ffffffffffffffffffffffffffffffffffffffff168152602001908152602001600020600101600082825461028f9190610d66565b925050819055503373ffffffffffffffffffffffffffffffffffffffff166108fc6000803373ffffffffffffffffffffffffffffffffffffffff1673ffffffffffffffffffffffffffffffffffffffff168152602001908152602001600020600101549081150290604051600060405180830381858888f1935050505015801561031d573d6000803e3d6000fd5b50506103b7565b60008114156103b6573373ffffffffffffffffffffffffffffffffffffffff166108fc6000803373ffffffffffffffffffffffffffffffffffffffff1673ffffffffffffffffffffffffffffffffffffffff168152602001908152602001600020600101549081150290604051600060405180830381858888f193505050501580156103b4573d6000803e3d6000fd5b505b5b5b6103c133610611565b50565b60003411610407576040517f08c379a00000000000000000000000000000000000000000000000000000000081526004016103fe90610cc9565b60405180910390fd5b6040518060600160405280600115158152602001348152602001828152506000803373ffffffffffffffffffffffffffffffffffffffff1673ffffffffffffffffffffffffffffffffffffffff16815260200190815260200160002060008201518160000160006101000a81548160ff0219169083151502179055506020820151816001015560408201518160020190805190602001906104a9929190610892565b509050506001339080600181540180825580915050600190039060005260206000200160009091909190916101000a81548173ffffffffffffffffffffffffffffffffffffffff021916908373ffffffffffffffffffffffffffffffffffffffff16021790555050565b6001818154811061052357600080fd5b906000526020600020016000915054906101000a900473ffffffffffffffffffffffffffffffffffffffff1681565b60006020528060005260406000206000915090508060000160009054906101000a900460ff169080600101549080600201805461058e90610e2e565b80601f01602080910402602001604051908101604052809291908181526020018280546105ba90610e2e565b80156106075780601f106105dc57610100808354040283529160200191610607565b820191906000526020600020905b8154815290600101906020018083116105ea57829003601f168201915b5050505050905083565b60005b60018054905081101561088e578173ffffffffffffffffffffffffffffffffffffffff1660018281548110610672577f4e487b7100000000000000000000000000000000000000000000000000000000600052603260045260246000fd5b9060005260206000200160009054906101000a900473ffffffffffffffffffffffffffffffffffffffff1673ffffffffffffffffffffffffffffffffffffffff16141561087b5760018080805490506106cb9190610d66565b81548110610702577f4e487b7100000000000000000000000000000000000000000000000000000000600052603260045260246000fd5b9060005260206000200160009054906101000a900473ffffffffffffffffffffffffffffffffffffffff1660018281548110610767577f4e487b7100000000000000000000000000000000000000000000000000000000600052603260045260246000fd5b9060005260206000200160006101000a81548173ffffffffffffffffffffffffffffffffffffffff021916908373ffffffffffffffffffffffffffffffffffffffff16021790555060018054806107e7577f4e487b7100000000000000000000000000000000000000000000000000000000600052603160045260246000fd5b6001900381819060005260206000200160006101000a81549073ffffffffffffffffffffffffffffffffffffffff0219169055905560008060008473ffffffffffffffffffffffffffffffffffffffff1673ffffffffffffffffffffffffffffffffffffffff16815260200190815260200160002060000160006101000a81548160ff02191690831515021790555061088e565b808061088690610e60565b915050610614565b5050565b82805461089e90610e2e565b90600052602060002090601f0160209004810192826108c05760008555610907565b82601f106108d957805160ff1916838001178555610907565b82800160010185558215610907579182015b828111156109065782518255916020019190600101906108eb565b5b5090506109149190610918565b5090565b5b80821115610931576000816000905550600101610919565b5090565b600061094861094384610d1a565b610ce9565b90508281526020810184848401111561096057600080fd5b61096b848285610dec565b509392505050565b60008135905061098281610f90565b92915050565b60008135905061099781610fa7565b92915050565b600082601f8301126109ae57600080fd5b81356109be848260208601610935565b91505092915050565b6000813590506109d681610fbe565b92915050565b6000602082840312156109ee57600080fd5b60006109fc84828501610973565b91505092915050565b600060208284031215610a1757600080fd5b6000610a2584828501610988565b91505092915050565b600060208284031215610a4057600080fd5b600082013567ffffffffffffffff811115610a5a57600080fd5b610a668482850161099d565b91505092915050565b600060208284031215610a8157600080fd5b6000610a8f848285016109c7565b91505092915050565b610aa181610d9a565b82525050565b610ab081610dac565b82525050565b6000610ac182610d4a565b610acb8185610d55565b9350610adb818560208601610dfb565b610ae481610f7f565b840191505092915050565b6000610afc602c83610d55565b91507f4e6f7420656e6f75676820636f6e74726163742062616c616e636520746f207060008301527f61792077696e6e696e67732e00000000000000000000000000000000000000006020830152604082019050919050565b6000610b62603383610d55565b91507f506c6179657220646f65736e2774206861766520656e6f7567682062616c616e60008301527f636520746f20636f766572206c6f737365732e000000000000000000000000006020830152604082019050919050565b6000610bc8602f83610d55565b91507f4d7573742073656e64206120706f73697469766520616d6f756e74206f66204560008301527f7468657220746f2062757920696e2e00000000000000000000000000000000006020830152604082019050919050565b610c2a81610de2565b82525050565b6000602082019050610c456000830184610a98565b92915050565b6000606082019050610c606000830186610aa7565b610c6d6020830185610c21565b8181036040830152610c7f8184610ab6565b9050949350505050565b60006020820190508181036000830152610ca281610aef565b9050919050565b60006020820190508181036000830152610cc281610b55565b9050919050565b60006020820190508181036000830152610ce281610bbb565b9050919050565b6000604051905081810181811067ffffffffffffffff82111715610d1057610d0f610f50565b5b8060405250919050565b600067ffffffffffffffff821115610d3557610d34610f50565b5b601f19601f8301169050602081019050919050565b600081519050919050565b600082825260208201905092915050565b6000610d7182610de2565b9150610d7c83610de2565b925082821015610d8f57610d8e610ef2565b5b828203905092915050565b6000610da582610dc2565b9050919050565b60008115159050919050565b6000819050919050565b600073ffffffffffffffffffffffffffffffffffffffff82169050919050565b6000819050919050565b82818337600083830152505050565b60005b83811015610e19578082015181840152602081019050610dfe565b83811115610e28576000848401525b50505050565b60006002820490506001821680610e4657607f821691505b60208210811415610e5a57610e59610f21565b5b50919050565b6000610e6b82610de2565b91507fffffffffffffffffffffffffffffffffffffffffffffffffffffffffffffffff821415610e9e57610e9d610ef2565b5b600182019050919050565b6000610eb482610db8565b91507f8000000000000000000000000000000000000000000000000000000000000000821415610ee757610ee6610ef2565b5b816000039050919050565b7f4e487b7100000000000000000000000000000000000000000000000000000000600052601160045260246000fd5b7f4e487b7100000000000000000000000000000000000000000000000000000000600052602260045260246000fd5b7f4e487b7100000000000000000000000000000000000000000000000000000000600052604160045260246000fd5b6000601f19601f8301169050919050565b610f9981610d9a565b8114610fa457600080fd5b50565b610fb081610db8565b8114610fbb57600080fd5b50565b610fc781610de2565b8114610fd257600080fd5b5056fea26469706673582212202dda83f07b361394aac145d4d93d343d823785444dd6a144aa7cae43cab1a88164736f6c63430008000033",
  "linkReferences": {},
  "deployedLinkReferences": {}
}